{
  "contractName": "SabifiNFT",
  "abi": [
    {
      "inputs": [
        {
          "internalType": "string",
          "name": "_name",
          "type": "string"
        },
        {
          "internalType": "string",
          "name": "_symbol",
          "type": "string"
        },
        {
          "internalType": "uint256",
          "name": "_royalityFee",
          "type": "uint256"
        },
        {
          "internalType": "address",
          "name": "_artist",
          "type": "address"
        }
      ],
      "stateMutability": "nonpayable",
      "type": "constructor"
    },
    {
      "anonymous": false,
      "inputs": [
        {
          "indexed": true,
          "internalType": "address",
          "name": "owner",
          "type": "address"
        },
        {
          "indexed": true,
          "internalType": "address",
          "name": "approved",
          "type": "address"
        },
        {
          "indexed": true,
          "internalType": "uint256",
          "name": "tokenId",
          "type": "uint256"
        }
      ],
      "name": "Approval",
      "type": "event"
    },
    {
      "anonymous": false,
      "inputs": [
        {
          "indexed": true,
          "internalType": "address",
          "name": "owner",
          "type": "address"
        },
        {
          "indexed": true,
          "internalType": "address",
          "name": "operator",
          "type": "address"
        },
        {
          "indexed": false,
          "internalType": "bool",
          "name": "approved",
          "type": "bool"
        }
      ],
      "name": "ApprovalForAll",
      "type": "event"
    },
    {
      "anonymous": false,
      "inputs": [
        {
          "indexed": true,
          "internalType": "address",
          "name": "previousOwner",
          "type": "address"
        },
        {
          "indexed": true,
          "internalType": "address",
          "name": "newOwner",
          "type": "address"
        }
      ],
      "name": "OwnershipTransferred",
      "type": "event"
    },
    {
      "anonymous": false,
      "inputs": [
        {
          "indexed": false,
          "internalType": "uint256",
          "name": "id",
          "type": "uint256"
        },
        {
          "indexed": true,
          "internalType": "address",
          "name": "owner",
          "type": "address"
        },
        {
          "indexed": false,
          "internalType": "uint256",
          "name": "cost",
          "type": "uint256"
        },
        {
          "indexed": false,
          "internalType": "string",
          "name": "metadataURI",
          "type": "string"
        },
        {
          "indexed": false,
          "internalType": "uint256",
          "name": "timestamp",
          "type": "uint256"
        }
      ],
      "name": "Sale",
      "type": "event"
    },
    {
      "anonymous": false,
      "inputs": [
        {
          "indexed": true,
          "internalType": "address",
          "name": "from",
          "type": "address"
        },
        {
          "indexed": true,
          "internalType": "address",
          "name": "to",
          "type": "address"
        },
        {
          "indexed": true,
          "internalType": "uint256",
          "name": "tokenId",
          "type": "uint256"
        }
      ],
      "name": "Transfer",
      "type": "event"
    },
    {
      "inputs": [
        {
          "internalType": "address",
          "name": "to",
          "type": "address"
        },
        {
          "internalType": "uint256",
          "name": "tokenId",
          "type": "uint256"
        }
      ],
      "name": "approve",
      "outputs": [],
      "stateMutability": "nonpayable",
      "type": "function"
    },
    {
      "inputs": [],
      "name": "artist",
      "outputs": [
        {
          "internalType": "address",
          "name": "",
          "type": "address"
        }
      ],
      "stateMutability": "view",
      "type": "function",
      "constant": true
    },
    {
      "inputs": [
        {
          "internalType": "address",
          "name": "owner",
          "type": "address"
        }
      ],
      "name": "balanceOf",
      "outputs": [
        {
          "internalType": "uint256",
          "name": "",
          "type": "uint256"
        }
      ],
      "stateMutability": "view",
      "type": "function",
      "constant": true
    },
    {
      "inputs": [],
      "name": "cost",
      "outputs": [
        {
          "internalType": "uint256",
          "name": "",
          "type": "uint256"
        }
      ],
      "stateMutability": "view",
      "type": "function",
      "constant": true
    },
    {
      "inputs": [
        {
          "internalType": "uint256",
          "name": "tokenId",
          "type": "uint256"
        }
      ],
      "name": "getApproved",
      "outputs": [
        {
          "internalType": "address",
          "name": "",
          "type": "address"
        }
      ],
      "stateMutability": "view",
      "type": "function",
      "constant": true
    },
    {
      "inputs": [
        {
          "internalType": "uint256",
          "name": "",
          "type": "uint256"
        }
      ],
      "name": "holderOf",
      "outputs": [
        {
          "internalType": "address",
          "name": "",
          "type": "address"
        }
      ],
      "stateMutability": "view",
      "type": "function",
      "constant": true
    },
    {
      "inputs": [
        {
          "internalType": "address",
          "name": "owner",
          "type": "address"
        },
        {
          "internalType": "address",
          "name": "operator",
          "type": "address"
        }
      ],
      "name": "isApprovedForAll",
      "outputs": [
        {
          "internalType": "bool",
          "name": "",
          "type": "bool"
        }
      ],
      "stateMutability": "view",
      "type": "function",
      "constant": true
    },
    {
      "inputs": [],
      "name": "name",
      "outputs": [
        {
          "internalType": "string",
          "name": "",
          "type": "string"
        }
      ],
      "stateMutability": "view",
      "type": "function",
      "constant": true
    },
    {
      "inputs": [],
      "name": "owner",
      "outputs": [
        {
          "internalType": "address",
          "name": "",
          "type": "address"
        }
      ],
      "stateMutability": "view",
      "type": "function",
      "constant": true
    },
    {
      "inputs": [
        {
          "internalType": "uint256",
          "name": "tokenId",
          "type": "uint256"
        }
      ],
      "name": "ownerOf",
      "outputs": [
        {
          "internalType": "address",
          "name": "",
          "type": "address"
        }
      ],
      "stateMutability": "view",
      "type": "function",
      "constant": true
    },
    {
      "inputs": [],
      "name": "renounceOwnership",
      "outputs": [],
      "stateMutability": "nonpayable",
      "type": "function"
    },
    {
      "inputs": [],
      "name": "royalityFee",
      "outputs": [
        {
          "internalType": "uint256",
          "name": "",
          "type": "uint256"
        }
      ],
      "stateMutability": "view",
      "type": "function",
      "constant": true
    },
    {
      "inputs": [
        {
          "internalType": "address",
          "name": "from",
          "type": "address"
        },
        {
          "internalType": "address",
          "name": "to",
          "type": "address"
        },
        {
          "internalType": "uint256",
          "name": "tokenId",
          "type": "uint256"
        }
      ],
      "name": "safeTransferFrom",
      "outputs": [],
      "stateMutability": "payable",
      "type": "function",
      "payable": true
    },
    {
      "inputs": [
        {
          "internalType": "address",
          "name": "from",
          "type": "address"
        },
        {
          "internalType": "address",
          "name": "to",
          "type": "address"
        },
        {
          "internalType": "uint256",
          "name": "tokenId",
          "type": "uint256"
        },
        {
          "internalType": "bytes",
          "name": "_data",
          "type": "bytes"
        }
      ],
      "name": "safeTransferFrom",
      "outputs": [],
      "stateMutability": "payable",
      "type": "function",
      "payable": true
    },
    {
      "inputs": [
        {
          "internalType": "address",
          "name": "operator",
          "type": "address"
        },
        {
          "internalType": "bool",
          "name": "approved",
          "type": "bool"
        }
      ],
      "name": "setApprovalForAll",
      "outputs": [],
      "stateMutability": "nonpayable",
      "type": "function"
    },
    {
      "inputs": [],
      "name": "supply",
      "outputs": [
        {
          "internalType": "uint256",
          "name": "",
          "type": "uint256"
        }
      ],
      "stateMutability": "view",
      "type": "function",
      "constant": true
    },
    {
      "inputs": [
        {
          "internalType": "bytes4",
          "name": "interfaceId",
          "type": "bytes4"
        }
      ],
      "name": "supportsInterface",
      "outputs": [
        {
          "internalType": "bool",
          "name": "",
          "type": "bool"
        }
      ],
      "stateMutability": "view",
      "type": "function",
      "constant": true
    },
    {
      "inputs": [],
      "name": "symbol",
      "outputs": [
        {
          "internalType": "string",
          "name": "",
          "type": "string"
        }
      ],
      "stateMutability": "view",
      "type": "function",
      "constant": true
    },
    {
      "inputs": [
        {
          "internalType": "uint256",
          "name": "index",
          "type": "uint256"
        }
      ],
      "name": "tokenByIndex",
      "outputs": [
        {
          "internalType": "uint256",
          "name": "",
          "type": "uint256"
        }
      ],
      "stateMutability": "view",
      "type": "function",
      "constant": true
    },
    {
      "inputs": [
        {
          "internalType": "address",
          "name": "owner",
          "type": "address"
        },
        {
          "internalType": "uint256",
          "name": "index",
          "type": "uint256"
        }
      ],
      "name": "tokenOfOwnerByIndex",
      "outputs": [
        {
          "internalType": "uint256",
          "name": "",
          "type": "uint256"
        }
      ],
      "stateMutability": "view",
      "type": "function",
      "constant": true
    },
    {
      "inputs": [
        {
          "internalType": "uint256",
          "name": "tokenId",
          "type": "uint256"
        }
      ],
      "name": "tokenURI",
      "outputs": [
        {
          "internalType": "string",
          "name": "",
          "type": "string"
        }
      ],
      "stateMutability": "view",
      "type": "function",
      "constant": true
    },
    {
      "inputs": [],
      "name": "totalSupply",
      "outputs": [
        {
          "internalType": "uint256",
          "name": "",
          "type": "uint256"
        }
      ],
      "stateMutability": "view",
      "type": "function",
      "constant": true
    },
    {
      "inputs": [],
      "name": "totalTx",
      "outputs": [
        {
          "internalType": "uint256",
          "name": "",
          "type": "uint256"
        }
      ],
      "stateMutability": "view",
      "type": "function",
      "constant": true
    },
    {
      "inputs": [
        {
          "internalType": "address",
          "name": "from",
          "type": "address"
        },
        {
          "internalType": "address",
          "name": "to",
          "type": "address"
        },
        {
          "internalType": "uint256",
          "name": "tokenId",
          "type": "uint256"
        }
      ],
      "name": "transferFrom",
      "outputs": [],
      "stateMutability": "payable",
      "type": "function",
      "payable": true
    },
    {
      "inputs": [
        {
          "internalType": "address",
          "name": "newOwner",
          "type": "address"
        }
      ],
      "name": "transferOwnership",
      "outputs": [],
      "stateMutability": "nonpayable",
      "type": "function"
    },
    {
      "inputs": [
        {
          "internalType": "string",
          "name": "title",
          "type": "string"
        },
        {
          "internalType": "string",
          "name": "description",
          "type": "string"
        },
        {
          "internalType": "string",
          "name": "metadataURI",
          "type": "string"
        },
        {
          "internalType": "uint256",
          "name": "salesPrice",
          "type": "uint256"
        }
      ],
      "name": "payToMint",
      "outputs": [],
      "stateMutability": "payable",
      "type": "function",
      "payable": true
    },
    {
      "inputs": [
        {
          "internalType": "uint256",
          "name": "id",
          "type": "uint256"
        }
      ],
      "name": "payToBuy",
      "outputs": [],
      "stateMutability": "payable",
      "type": "function",
      "payable": true
    },
    {
      "inputs": [
        {
          "internalType": "uint256",
          "name": "id",
          "type": "uint256"
        },
        {
          "internalType": "uint256",
          "name": "newPrice",
          "type": "uint256"
        }
      ],
      "name": "changePrice",
      "outputs": [
        {
          "internalType": "bool",
          "name": "",
          "type": "bool"
        }
      ],
      "stateMutability": "nonpayable",
      "type": "function"
    },
    {
      "inputs": [],
      "name": "getAllNFTs",
      "outputs": [
        {
          "components": [
            {
              "internalType": "uint256",
              "name": "id",
              "type": "uint256"
            },
            {
              "internalType": "address",
              "name": "owner",
              "type": "address"
            },
            {
              "internalType": "uint256",
              "name": "cost",
              "type": "uint256"
            },
            {
              "internalType": "string",
              "name": "title",
              "type": "string"
            },
            {
              "internalType": "string",
              "name": "description",
              "type": "string"
            },
            {
              "internalType": "string",
              "name": "metadataURI",
              "type": "string"
            },
            {
              "internalType": "uint256",
              "name": "timestamp",
              "type": "uint256"
            }
          ],
          "internalType": "struct SabifiNFT.TransactionStruct[]",
          "name": "",
          "type": "tuple[]"
        }
      ],
      "stateMutability": "view",
      "type": "function",
      "constant": true
    },
    {
      "inputs": [
        {
          "internalType": "uint256",
          "name": "id",
          "type": "uint256"
        }
      ],
      "name": "getNFT",
      "outputs": [
        {
          "components": [
            {
              "internalType": "uint256",
              "name": "id",
              "type": "uint256"
            },
            {
              "internalType": "address",
              "name": "owner",
              "type": "address"
            },
            {
              "internalType": "uint256",
              "name": "cost",
              "type": "uint256"
            },
            {
              "internalType": "string",
              "name": "title",
              "type": "string"
            },
            {
              "internalType": "string",
              "name": "description",
              "type": "string"
            },
            {
              "internalType": "string",
              "name": "metadataURI",
              "type": "string"
            },
            {
              "internalType": "uint256",
              "name": "timestamp",
              "type": "uint256"
            }
          ],
          "internalType": "struct SabifiNFT.TransactionStruct",
          "name": "",
          "type": "tuple"
        }
      ],
      "stateMutability": "view",
      "type": "function",
      "constant": true
    },
    {
      "inputs": [],
      "name": "getAllTransactions",
      "outputs": [
        {
          "components": [
            {
              "internalType": "uint256",
              "name": "id",
              "type": "uint256"
            },
            {
              "internalType": "address",
              "name": "owner",
              "type": "address"
            },
            {
              "internalType": "uint256",
              "name": "cost",
              "type": "uint256"
            },
            {
              "internalType": "string",
              "name": "title",
              "type": "string"
            },
            {
              "internalType": "string",
              "name": "description",
              "type": "string"
            },
            {
              "internalType": "string",
              "name": "metadataURI",
              "type": "string"
            },
            {
              "internalType": "uint256",
              "name": "timestamp",
              "type": "uint256"
            }
          ],
          "internalType": "struct SabifiNFT.TransactionStruct[]",
          "name": "",
          "type": "tuple[]"
        }
      ],
      "stateMutability": "view",
      "type": "function",
      "constant": true
    }
  ],
  "bytecode": "0x60806040526000600f556000601055662386f26fc100006011553480156200002657600080fd5b5060405162005d6e38038062005d6e83398181016040528101906200004c9190620003f9565b838381600090816200005f9190620006f0565b508060019081620000719190620006f0565b505050620000a662000091620000f8640100000000026401000000009004565b62000100640100000000026401000000009004565b81600e8190555080600d60006101000a81548173ffffffffffffffffffffffffffffffffffffffff021916908373ffffffffffffffffffffffffffffffffffffffff16021790555050505050620007d7565b600033905090565b6000600a60009054906101000a900473ffffffffffffffffffffffffffffffffffffffff16905081600a60006101000a81548173ffffffffffffffffffffffffffffffffffffffff021916908373ffffffffffffffffffffffffffffffffffffffff1602179055508173ffffffffffffffffffffffffffffffffffffffff168173ffffffffffffffffffffffffffffffffffffffff167f8be0079c531659141344cd1fd0a4f28419497f9722a3daafe3b4186f6b6457e060405160405180910390a35050565b6000604051905090565b600080fd5b600080fd5b600080fd5b600080fd5b6000601f19601f8301169050919050565b7f4e487b7100000000000000000000000000000000000000000000000000000000600052604160045260246000fd5b6200022f82620001e4565b810181811067ffffffffffffffff82111715620002515762000250620001f5565b5b80604052505050565b600062000266620001c6565b905062000274828262000224565b919050565b600067ffffffffffffffff821115620002975762000296620001f5565b5b620002a282620001e4565b9050602081019050919050565b60005b83811015620002cf578082015181840152602081019050620002b2565b60008484015250505050565b6000620002f2620002ec8462000279565b6200025a565b905082815260208101848484011115620003115762000310620001df565b5b6200031e848285620002af565b509392505050565b600082601f8301126200033e576200033d620001da565b5b815162000350848260208601620002db565b91505092915050565b6000819050919050565b6200036e8162000359565b81146200037a57600080fd5b50565b6000815190506200038e8162000363565b92915050565b600073ffffffffffffffffffffffffffffffffffffffff82169050919050565b6000620003c18262000394565b9050919050565b620003d381620003b4565b8114620003df57600080fd5b50565b600081519050620003f381620003c8565b92915050565b60008060008060808587031215620004165762000415620001d0565b5b600085015167ffffffffffffffff811115620004375762000436620001d5565b5b620004458782880162000326565b945050602085015167ffffffffffffffff811115620004695762000468620001d5565b5b620004778782880162000326565b93505060406200048a878288016200037d565b92505060606200049d87828801620003e2565b91505092959194509250565b600081519050919050565b7f4e487b7100000000000000000000000000000000000000000000000000000000600052602260045260246000fd5b60006002820490506001821680620004fc57607f821691505b602082108103620005125762000511620004b4565b5b50919050565b60008190508160005260206000209050919050565b60006020601f8301049050919050565b60008160020a8302905092915050565b6000600883026200057f7fffffffffffffffffffffffffffffffffffffffffffffffffffffffffffffffff826200053d565b6200058b86836200053d565b95508019841693508086168417925050509392505050565b6000819050919050565b6000620005ce620005c8620005c28462000359565b620005a3565b62000359565b9050919050565b6000819050919050565b620005ea83620005ad565b62000602620005f982620005d5565b8484546200054d565b825550505050565b600090565b620006196200060a565b62000626818484620005df565b505050565b5b818110156200064e57620006426000826200060f565b6001810190506200062c565b5050565b601f8211156200069d57620006678162000518565b62000672846200052d565b8101602085101562000682578190505b6200069a62000691856200052d565b8301826200062b565b50505b505050565b60008160020a8304905092915050565b6000620006c560001984600802620006a2565b1980831691505092915050565b6000620006e08383620006b2565b9150826002028217905092915050565b620006fb82620004a9565b67ffffffffffffffff811115620007175762000716620001f5565b5b620007238254620004e3565b6200073082828562000652565b600060209050601f83116001811462000768576000841562000753578287015190505b6200075f8582620006d2565b865550620007cf565b601f198416620007788662000518565b60005b82811015620007a2578489015182556001820191506020850194506020810190506200077b565b86831015620007c25784890151620007be601f891682620006b2565b8355505b6001600288020188555050505b505050505050565b61558780620007e76000396000f3fe6080604052600436106101f5576000357c0100000000000000000000000000000000000000000000000000000000900480636352211e1161011f578063a22cb465116100b2578063dbacc23711610081578063dbacc237146106c2578063e0391b09146106ff578063e985e9c51461072a578063f2fde38b14610767576101f5565b8063a22cb46514610603578063b3de019c1461062c578063b88d4fde14610669578063c87b56dd14610685576101f5565b8063799c0c1e116100ee578063799c0c1e146105755780638da5cb5b1461059157806395d89b41146105bc5780639ba4b017146105e7576101f5565b80636352211e146104b957806370a08231146104f6578063715018a6146105335780637220cf391461054a576101f5565b806323b872dd1161019757806342842e0e1161016657806342842e0e146103f857806343bc1612146104145780634f6ccce71461043f578063576f7ea71461047c576101f5565b806323b872dd1461034957806327506f53146103655780632f745c5914610390578063326bb4ad146103cd576101f5565b8063081812fc116101d3578063081812fc1461028d578063095ea7b3146102ca57806313faede6146102f357806318160ddd1461031e576101f5565b806301ffc9a7146101fa578063047fc9aa1461023757806306fdde0314610262575b600080fd5b34801561020657600080fd5b50610221600480360381019061021c91906137f2565b610790565b60405161022e919061383a565b60405180910390f35b34801561024357600080fd5b5061024c61080a565b604051610259919061386e565b60405180910390f35b34801561026e57600080fd5b50610277610810565b6040516102849190613919565b60405180910390f35b34801561029957600080fd5b506102b460048036038101906102af9190613967565b6108a2565b6040516102c191906139d5565b60405180910390f35b3480156102d657600080fd5b506102f160048036038101906102ec9190613a1c565b610927565b005b3480156102ff57600080fd5b50610308610a3e565b604051610315919061386e565b60405180910390f35b34801561032a57600080fd5b50610333610a44565b604051610340919061386e565b60405180910390f35b610363600480360381019061035e9190613a5c565b610a51565b005b34801561037157600080fd5b5061037a610ab1565b6040516103879190613c83565b60405180910390f35b34801561039c57600080fd5b506103b760048036038101906103b29190613a1c565b610d3a565b6040516103c4919061386e565b60405180910390f35b3480156103d957600080fd5b506103e2610ddf565b6040516103ef919061386e565b60405180910390f35b610412600480360381019061040d9190613a5c565b610de5565b005b34801561042057600080fd5b50610429610e05565b60405161043691906139d5565b60405180910390f35b34801561044b57600080fd5b5061046660048036038101906104619190613967565b610e2b565b604051610473919061386e565b60405180910390f35b34801561048857600080fd5b506104a3600480360381019061049e9190613967565b610e9c565b6040516104b09190613d4f565b60405180910390f35b3480156104c557600080fd5b506104e060048036038101906104db9190613967565b61110e565b6040516104ed91906139d5565b60405180910390f35b34801561050257600080fd5b5061051d60048036038101906105189190613d71565b6111bf565b60405161052a919061386e565b60405180910390f35b34801561053f57600080fd5b50610548611276565b005b34801561055657600080fd5b5061055f61128a565b60405161056c919061386e565b60405180910390f35b61058f600480360381019061058a9190613ed3565b611290565b005b34801561059d57600080fd5b506105a661164d565b6040516105b391906139d5565b60405180910390f35b3480156105c857600080fd5b506105d1611677565b6040516105de9190613919565b60405180910390f35b61060160048036038101906105fc9190613967565b611709565b005b34801561060f57600080fd5b5061062a60048036038101906106259190613fba565b611d48565b005b34801561063857600080fd5b50610653600480360381019061064e9190613ffa565b611d5e565b604051610660919061383a565b60405180910390f35b610683600480360381019061067e91906140db565b611ea1565b005b34801561069157600080fd5b506106ac60048036038101906106a79190613967565b611f03565b6040516106b99190613919565b60405180910390f35b3480156106ce57600080fd5b506106e960048036038101906106e49190613967565b611faa565b6040516106f691906139d5565b60405180910390f35b34801561070b57600080fd5b50610714611fdd565b6040516107219190613c83565b60405180910390f35b34801561073657600080fd5b50610751600480360381019061074c919061415e565b612266565b60405161075e919061383a565b60405180910390f35b34801561077357600080fd5b5061078e60048036038101906107899190613d71565b6122fa565b005b60007f780e9d63000000000000000000000000000000000000000000000000000000007bffffffffffffffffffffffffffffffffffffffffffffffffffffffff1916827bffffffffffffffffffffffffffffffffffffffffffffffffffffffff1916148061080357506108028261237d565b5b9050919050565b600f5481565b60606000805461081f906141cd565b80601f016020809104026020016040519081016040528092919081815260200182805461084b906141cd565b80156108985780601f1061086d57610100808354040283529160200191610898565b820191906000526020600020905b81548152906001019060200180831161087b57829003601f168201915b5050505050905090565b60006108ad8261245f565b6108ec576040517f08c379a00000000000000000000000000000000000000000000000000000000081526004016108e390614270565b60405180910390fd5b6004600083815260200190815260200160002060009054906101000a900473ffffffffffffffffffffffffffffffffffffffff169050919050565b60006109328261110e565b90508073ffffffffffffffffffffffffffffffffffffffff168373ffffffffffffffffffffffffffffffffffffffff16036109a2576040517f08c379a000000000000000000000000000000000000000000000000000000000815260040161099990614302565b60405180910390fd5b8073ffffffffffffffffffffffffffffffffffffffff166109c16124cb565b73ffffffffffffffffffffffffffffffffffffffff1614806109f057506109ef816109ea6124cb565b612266565b5b610a2f576040517f08c379a0000000000000000000000000000000000000000000000000000000008152600401610a2690614394565b60405180910390fd5b610a3983836124d3565b505050565b60115481565b6000600880549050905090565b610a62610a5c6124cb565b8261258c565b610aa1576040517f08c379a0000000000000000000000000000000000000000000000000000000008152600401610a9890614426565b60405180910390fd5b610aac83838361266a565b505050565b60606012805480602002602001604051908101604052809291908181526020016000905b82821015610d3157838290600052602060002090600702016040518060e0016040529081600082015481526020016001820160009054906101000a900473ffffffffffffffffffffffffffffffffffffffff1673ffffffffffffffffffffffffffffffffffffffff1673ffffffffffffffffffffffffffffffffffffffff16815260200160028201548152602001600382018054610b72906141cd565b80601f0160208091040260200160405190810160405280929190818152602001828054610b9e906141cd565b8015610beb5780601f10610bc057610100808354040283529160200191610beb565b820191906000526020600020905b815481529060010190602001808311610bce57829003601f168201915b50505050508152602001600482018054610c04906141cd565b80601f0160208091040260200160405190810160405280929190818152602001828054610c30906141cd565b8015610c7d5780601f10610c5257610100808354040283529160200191610c7d565b820191906000526020600020905b815481529060010190602001808311610c6057829003601f168201915b50505050508152602001600582018054610c96906141cd565b80601f0160208091040260200160405190810160405280929190818152602001828054610cc2906141cd565b8015610d0f5780601f10610ce457610100808354040283529160200191610d0f565b820191906000526020600020905b815481529060010190602001808311610cf257829003601f168201915b5050505050815260200160068201548152505081526020019060010190610ad5565b50505050905090565b6000610d45836111bf565b8210610d86576040517f08c379a0000000000000000000000000000000000000000000000000000000008152600401610d7d906144b8565b60405180910390fd5b600660008473ffffffffffffffffffffffffffffffffffffffff1673ffffffffffffffffffffffffffffffffffffffff168152602001908152602001600020600083815260200190815260200160002054905092915050565b600e5481565b610e0083838360405180602001604052806000815250611ea1565b505050565b600d60009054906101000a900473ffffffffffffffffffffffffffffffffffffffff1681565b6000610e35610a44565b8210610e76576040517f08c379a0000000000000000000000000000000000000000000000000000000008152600401610e6d9061454a565b60405180910390fd5b60088281548110610e8a57610e8961456a565b5b90600052602060002001549050919050565b610ea4613733565b6013600183610eb391906145c8565b81548110610ec457610ec361456a565b5b90600052602060002090600702016040518060e0016040529081600082015481526020016001820160009054906101000a900473ffffffffffffffffffffffffffffffffffffffff1673ffffffffffffffffffffffffffffffffffffffff1673ffffffffffffffffffffffffffffffffffffffff16815260200160028201548152602001600382018054610f57906141cd565b80601f0160208091040260200160405190810160405280929190818152602001828054610f83906141cd565b8015610fd05780601f10610fa557610100808354040283529160200191610fd0565b820191906000526020600020905b815481529060010190602001808311610fb357829003601f168201915b50505050508152602001600482018054610fe9906141cd565b80601f0160208091040260200160405190810160405280929190818152602001828054611015906141cd565b80156110625780601f1061103757610100808354040283529160200191611062565b820191906000526020600020905b81548152906001019060200180831161104557829003601f168201915b5050505050815260200160058201805461107b906141cd565b80601f01602080910402602001604051908101604052809291908181526020018280546110a7906141cd565b80156110f45780601f106110c9576101008083540402835291602001916110f4565b820191906000526020600020905b8154815290600101906020018083116110d757829003601f168201915b505050505081526020016006820154815250509050919050565b6000806002600084815260200190815260200160002060009054906101000a900473ffffffffffffffffffffffffffffffffffffffff169050600073ffffffffffffffffffffffffffffffffffffffff168173ffffffffffffffffffffffffffffffffffffffff16036111b6576040517f08c379a00000000000000000000000000000000000000000000000000000000081526004016111ad9061466e565b60405180910390fd5b80915050919050565b60008073ffffffffffffffffffffffffffffffffffffffff168273ffffffffffffffffffffffffffffffffffffffff160361122f576040517f08c379a000000000000000000000000000000000000000000000000000000000815260040161122690614700565b60405180910390fd5b600360008373ffffffffffffffffffffffffffffffffffffffff1673ffffffffffffffffffffffffffffffffffffffff168152602001908152602001600020549050919050565b61127e6128c5565b6112886000612943565b565b60105481565b6011543410156112d5576040517f08c379a00000000000000000000000000000000000000000000000000000000081526004016112cc9061476c565b60405180910390fd5b6000600b836040516112e791906147c8565b908152602001604051809103902060009054906101000a900460ff1660ff1614611346576040517f08c379a000000000000000000000000000000000000000000000000000000000815260040161133d9061482b565b60405180910390fd5b61134e61164d565b73ffffffffffffffffffffffffffffffffffffffff163373ffffffffffffffffffffffffffffffffffffffff16036113bb576040517f08c379a00000000000000000000000000000000000000000000000000000000081526004016113b290614897565b60405180910390fd5b60006064600e54346113cd91906148b7565b6113d79190614928565b9050611405600d60009054906101000a900473ffffffffffffffffffffffffffffffffffffffff1682612a09565b61142161141061164d565b823461141c91906145c8565b612a09565b600f600081548092919061143490614959565b919050555060136040518060e00160405280600f5481526020013373ffffffffffffffffffffffffffffffffffffffff1681526020018481526020018781526020018681526020018581526020014281525090806001815401808255809150506001900390600052602060002090600702016000909190919091506000820151816000015560208201518160010160006101000a81548173ffffffffffffffffffffffffffffffffffffffff021916908373ffffffffffffffffffffffffffffffffffffffff16021790555060408201518160020155606082015181600301908161151f9190614b53565b5060808201518160040190816115359190614b53565b5060a082015181600501908161154b9190614b53565b5060c0820151816006015550503373ffffffffffffffffffffffffffffffffffffffff167fb9508407a6eccb191d8da3286f4173697cf95604e9ea192fe5ab7c862b5221f6600f543486426040516115a69493929190614c25565b60405180910390a26115ba33600f54612a84565b6001600b846040516115cc91906147c8565b908152602001604051809103902060006101000a81548160ff021916908360ff16021790555033600c6000600f54815260200190815260200160002060006101000a81548173ffffffffffffffffffffffffffffffffffffffff021916908373ffffffffffffffffffffffffffffffffffffffff1602179055505050505050565b6000600a60009054906101000a900473ffffffffffffffffffffffffffffffffffffffff16905090565b606060018054611686906141cd565b80601f01602080910402602001604051908101604052809291908181526020018280546116b2906141cd565b80156116ff5780601f106116d4576101008083540402835291602001916116ff565b820191906000526020600020905b8154815290600101906020018083116116e257829003601f168201915b5050505050905090565b601360018261171891906145c8565b815481106117295761172861456a565b5b90600052602060002090600702016002015434101561177d576040517f08c379a000000000000000000000000000000000000000000000000000000000815260040161177490614cbd565b60405180910390fd5b601360018261178c91906145c8565b8154811061179d5761179c61456a565b5b906000526020600020906007020160010160009054906101000a900473ffffffffffffffffffffffffffffffffffffffff1673ffffffffffffffffffffffffffffffffffffffff163373ffffffffffffffffffffffffffffffffffffffff160361183c576040517f08c379a000000000000000000000000000000000000000000000000000000000815260040161183390614d29565b60405180910390fd5b60006064600e543461184e91906148b7565b6118589190614928565b9050611886600d60009054906101000a900473ffffffffffffffffffffffffffffffffffffffff1682612a09565b6118ec601360018461189891906145c8565b815481106118a9576118a861456a565b5b906000526020600020906007020160010160009054906101000a900473ffffffffffffffffffffffffffffffffffffffff1682346118e791906145c8565b612a09565b601060008154809291906118ff90614959565b919050555060126040518060e0016040528060105481526020013373ffffffffffffffffffffffffffffffffffffffff168152602001348152602001601360018661194a91906145c8565b8154811061195b5761195a61456a565b5b90600052602060002090600702016003018054611977906141cd565b80601f01602080910402602001604051908101604052809291908181526020018280546119a3906141cd565b80156119f05780601f106119c5576101008083540402835291602001916119f0565b820191906000526020600020905b8154815290600101906020018083116119d357829003601f168201915b505050505081526020016013600186611a0991906145c8565b81548110611a1a57611a1961456a565b5b90600052602060002090600702016004018054611a36906141cd565b80601f0160208091040260200160405190810160405280929190818152602001828054611a62906141cd565b8015611aaf5780601f10611a8457610100808354040283529160200191611aaf565b820191906000526020600020905b815481529060010190602001808311611a9257829003601f168201915b505050505081526020016013600186611ac891906145c8565b81548110611ad957611ad861456a565b5b90600052602060002090600702016005018054611af5906141cd565b80601f0160208091040260200160405190810160405280929190818152602001828054611b21906141cd565b8015611b6e5780601f10611b4357610100808354040283529160200191611b6e565b820191906000526020600020905b815481529060010190602001808311611b5157829003601f168201915b505050505081526020014281525090806001815401808255809150506001900390600052602060002090600702016000909190919091506000820151816000015560208201518160010160006101000a81548173ffffffffffffffffffffffffffffffffffffffff021916908373ffffffffffffffffffffffffffffffffffffffff160217905550604082015181600201556060820151816003019081611c159190614b53565b506080820151816004019081611c2b9190614b53565b5060a0820151816005019081611c419190614b53565b5060c0820151816006015550503373ffffffffffffffffffffffffffffffffffffffff167fb9508407a6eccb191d8da3286f4173697cf95604e9ea192fe5ab7c862b5221f6601054346013600187611c9991906145c8565b81548110611caa57611ca961456a565b5b906000526020600020906007020160050142604051611ccc9493929190614dcd565b60405180910390a2336013600184611ce491906145c8565b81548110611cf557611cf461456a565b5b906000526020600020906007020160010160006101000a81548173ffffffffffffffffffffffffffffffffffffffff021916908373ffffffffffffffffffffffffffffffffffffffff1602179055505050565b611d5a611d536124cb565b8383612aa2565b5050565b6000808211611da2576040517f08c379a0000000000000000000000000000000000000000000000000000000008152600401611d9990614e65565b60405180910390fd5b6013600184611db191906145c8565b81548110611dc257611dc161456a565b5b906000526020600020906007020160010160009054906101000a900473ffffffffffffffffffffffffffffffffffffffff1673ffffffffffffffffffffffffffffffffffffffff163373ffffffffffffffffffffffffffffffffffffffff1614611e61576040517f08c379a0000000000000000000000000000000000000000000000000000000008152600401611e5890614d29565b60405180910390fd5b816013600185611e7191906145c8565b81548110611e8257611e8161456a565b5b9060005260206000209060070201600201819055506001905092915050565b611eb2611eac6124cb565b8361258c565b611ef1576040517f08c379a0000000000000000000000000000000000000000000000000000000008152600401611ee890614426565b60405180910390fd5b611efd84848484612c0e565b50505050565b6060611f0e8261245f565b611f4d576040517f08c379a0000000000000000000000000000000000000000000000000000000008152600401611f4490614ef7565b60405180910390fd5b6000611f57612c6a565b90506000815111611f775760405180602001604052806000815250611fa2565b80611f8184612c81565b604051602001611f92929190614f17565b6040516020818303038152906040525b915050919050565b600c6020528060005260406000206000915054906101000a900473ffffffffffffffffffffffffffffffffffffffff1681565b60606013805480602002602001604051908101604052809291908181526020016000905b8282101561225d57838290600052602060002090600702016040518060e0016040529081600082015481526020016001820160009054906101000a900473ffffffffffffffffffffffffffffffffffffffff1673ffffffffffffffffffffffffffffffffffffffff1673ffffffffffffffffffffffffffffffffffffffff1681526020016002820154815260200160038201805461209e906141cd565b80601f01602080910402602001604051908101604052809291908181526020018280546120ca906141cd565b80156121175780601f106120ec57610100808354040283529160200191612117565b820191906000526020600020905b8154815290600101906020018083116120fa57829003601f168201915b50505050508152602001600482018054612130906141cd565b80601f016020809104026020016040519081016040528092919081815260200182805461215c906141cd565b80156121a95780601f1061217e576101008083540402835291602001916121a9565b820191906000526020600020905b81548152906001019060200180831161218c57829003601f168201915b505050505081526020016005820180546121c2906141cd565b80601f01602080910402602001604051908101604052809291908181526020018280546121ee906141cd565b801561223b5780601f106122105761010080835404028352916020019161223b565b820191906000526020600020905b81548152906001019060200180831161221e57829003601f168201915b5050505050815260200160068201548152505081526020019060010190612001565b50505050905090565b6000600560008473ffffffffffffffffffffffffffffffffffffffff1673ffffffffffffffffffffffffffffffffffffffff16815260200190815260200160002060008373ffffffffffffffffffffffffffffffffffffffff1673ffffffffffffffffffffffffffffffffffffffff16815260200190815260200160002060009054906101000a900460ff16905092915050565b6123026128c5565b600073ffffffffffffffffffffffffffffffffffffffff168173ffffffffffffffffffffffffffffffffffffffff1603612371576040517f08c379a000000000000000000000000000000000000000000000000000000000815260040161236890614fad565b60405180910390fd5b61237a81612943565b50565b60007f80ac58cd000000000000000000000000000000000000000000000000000000007bffffffffffffffffffffffffffffffffffffffffffffffffffffffff1916827bffffffffffffffffffffffffffffffffffffffffffffffffffffffff1916148061244857507f5b5e139f000000000000000000000000000000000000000000000000000000007bffffffffffffffffffffffffffffffffffffffffffffffffffffffff1916827bffffffffffffffffffffffffffffffffffffffffffffffffffffffff1916145b80612458575061245782612d4f565b5b9050919050565b60008073ffffffffffffffffffffffffffffffffffffffff166002600084815260200190815260200160002060009054906101000a900473ffffffffffffffffffffffffffffffffffffffff1673ffffffffffffffffffffffffffffffffffffffff1614159050919050565b600033905090565b816004600083815260200190815260200160002060006101000a81548173ffffffffffffffffffffffffffffffffffffffff021916908373ffffffffffffffffffffffffffffffffffffffff160217905550808273ffffffffffffffffffffffffffffffffffffffff166125468361110e565b73ffffffffffffffffffffffffffffffffffffffff167f8c5be1e5ebec7d5bd14f71427d1e84f3dd0314c0f7b2291e5b200ac8c7c3b92560405160405180910390a45050565b60006125978261245f565b6125d6576040517f08c379a00000000000000000000000000000000000000000000000000000000081526004016125cd9061503f565b60405180910390fd5b60006125e18361110e565b90508073ffffffffffffffffffffffffffffffffffffffff168473ffffffffffffffffffffffffffffffffffffffff16148061265057508373ffffffffffffffffffffffffffffffffffffffff16612638846108a2565b73ffffffffffffffffffffffffffffffffffffffff16145b8061266157506126608185612266565b5b91505092915050565b8273ffffffffffffffffffffffffffffffffffffffff1661268a8261110e565b73ffffffffffffffffffffffffffffffffffffffff16146126e0576040517f08c379a00000000000000000000000000000000000000000000000000000000081526004016126d7906150d1565b60405180910390fd5b600073ffffffffffffffffffffffffffffffffffffffff168273ffffffffffffffffffffffffffffffffffffffff160361274f576040517f08c379a000000000000000000000000000000000000000000000000000000000815260040161274690615163565b60405180910390fd5b61275a838383612db9565b6127656000826124d3565b6001600360008573ffffffffffffffffffffffffffffffffffffffff1673ffffffffffffffffffffffffffffffffffffffff16815260200190815260200160002060008282546127b591906145c8565b925050819055506001600360008473ffffffffffffffffffffffffffffffffffffffff1673ffffffffffffffffffffffffffffffffffffffff168152602001908152602001600020600082825461280c9190615183565b92505081905550816002600083815260200190815260200160002060006101000a81548173ffffffffffffffffffffffffffffffffffffffff021916908373ffffffffffffffffffffffffffffffffffffffff160217905550808273ffffffffffffffffffffffffffffffffffffffff168473ffffffffffffffffffffffffffffffffffffffff167fddf252ad1be2c89b69c2b068fc378daa952ba7f163c4a11628f55a4df523b3ef60405160405180910390a4505050565b6128cd6124cb565b73ffffffffffffffffffffffffffffffffffffffff166128eb61164d565b73ffffffffffffffffffffffffffffffffffffffff1614612941576040517f08c379a000000000000000000000000000000000000000000000000000000000815260040161293890615203565b60405180910390fd5b565b6000600a60009054906101000a900473ffffffffffffffffffffffffffffffffffffffff16905081600a60006101000a81548173ffffffffffffffffffffffffffffffffffffffff021916908373ffffffffffffffffffffffffffffffffffffffff1602179055508173ffffffffffffffffffffffffffffffffffffffff168173ffffffffffffffffffffffffffffffffffffffff167f8be0079c531659141344cd1fd0a4f28419497f9722a3daafe3b4186f6b6457e060405160405180910390a35050565b60008273ffffffffffffffffffffffffffffffffffffffff1682604051612a2f90615254565b60006040518083038185875af1925050503d8060008114612a6c576040519150601f19603f3d011682016040523d82523d6000602084013e612a71565b606091505b5050905080612a7f57600080fd5b505050565b612a9e828260405180602001604052806000815250612ecb565b5050565b8173ffffffffffffffffffffffffffffffffffffffff168373ffffffffffffffffffffffffffffffffffffffff1603612b10576040517f08c379a0000000000000000000000000000000000000000000000000000000008152600401612b07906152b5565b60405180910390fd5b80600560008573ffffffffffffffffffffffffffffffffffffffff1673ffffffffffffffffffffffffffffffffffffffff16815260200190815260200160002060008473ffffffffffffffffffffffffffffffffffffffff1673ffffffffffffffffffffffffffffffffffffffff16815260200190815260200160002060006101000a81548160ff0219169083151502179055508173ffffffffffffffffffffffffffffffffffffffff168373ffffffffffffffffffffffffffffffffffffffff167f17307eab39ab6107e8899845ad3d59bd9653f200f220920489ca2b5937696c3183604051612c01919061383a565b60405180910390a3505050565b612c1984848461266a565b612c2584848484612f26565b612c64576040517f08c379a0000000000000000000000000000000000000000000000000000000008152600401612c5b90615347565b60405180910390fd5b50505050565b606060405180602001604052806000815250905090565b606060006001612c90846130e5565b01905060008167ffffffffffffffff811115612caf57612cae613da8565b5b6040519080825280601f01601f191660200182016040528015612ce15781602001600182028036833780820191505090505b509050600082602001820190505b600115612d44578080600190039150507f3031323334353637383961626364656600000000000000000000000000000000600a86061a8153600a8581612d3857612d376148f9565b5b04945060008503612cef575b819350505050919050565b60007f01ffc9a7000000000000000000000000000000000000000000000000000000007bffffffffffffffffffffffffffffffffffffffffffffffffffffffff1916827bffffffffffffffffffffffffffffffffffffffffffffffffffffffff1916149050919050565b612dc4838383613238565b600073ffffffffffffffffffffffffffffffffffffffff168373ffffffffffffffffffffffffffffffffffffffff1603612e0657612e018161323d565b612e45565b8173ffffffffffffffffffffffffffffffffffffffff168373ffffffffffffffffffffffffffffffffffffffff1614612e4457612e438382613286565b5b5b600073ffffffffffffffffffffffffffffffffffffffff168273ffffffffffffffffffffffffffffffffffffffff1603612e8757612e82816133f3565b612ec6565b8273ffffffffffffffffffffffffffffffffffffffff168273ffffffffffffffffffffffffffffffffffffffff1614612ec557612ec482826134c4565b5b5b505050565b612ed58383613543565b612ee26000848484612f26565b612f21576040517f08c379a0000000000000000000000000000000000000000000000000000000008152600401612f1890615347565b60405180910390fd5b505050565b6000612f478473ffffffffffffffffffffffffffffffffffffffff16613710565b156130d8578373ffffffffffffffffffffffffffffffffffffffff1663150b7a02612f706124cb565b8786866040518563ffffffff167c0100000000000000000000000000000000000000000000000000000000028152600401612fae94939291906153bc565b6020604051808303816000875af1925050508015612fea57506040513d601f19601f82011682018060405250810190612fe7919061541d565b60015b61306c573d806000811461301a576040519150601f19603f3d011682016040523d82523d6000602084013e61301f565b606091505b506000815103613064576040517f08c379a000000000000000000000000000000000000000000000000000000000815260040161305b90615347565b60405180910390fd5b805181602001fd5b63150b7a027c0100000000000000000000000000000000000000000000000000000000027bffffffffffffffffffffffffffffffffffffffffffffffffffffffff1916817bffffffffffffffffffffffffffffffffffffffffffffffffffffffff1916149150506130dd565b600190505b949350505050565b600080600090507a184f03e93ff9f4daa797ed6e38ed64bf6a1f0100000000000000008310613143577a184f03e93ff9f4daa797ed6e38ed64bf6a1f0100000000000000008381613139576131386148f9565b5b0492506040810190505b6d04ee2d6d415b85acef81000000008310613180576d04ee2d6d415b85acef81000000008381613176576131756148f9565b5b0492506020810190505b662386f26fc1000083106131af57662386f26fc1000083816131a5576131a46148f9565b5b0492506010810190505b6305f5e10083106131d8576305f5e10083816131ce576131cd6148f9565b5b0492506008810190505b61271083106131fd5761271083816131f3576131f26148f9565b5b0492506004810190505b606483106132205760648381613216576132156148f9565b5b0492506002810190505b600a831061322f576001810190505b80915050919050565b505050565b6008805490506009600083815260200190815260200160002081905550600881908060018154018082558091505060019003906000526020600020016000909190919091505550565b60006001613293846111bf565b61329d91906145c8565b9050600060076000848152602001908152602001600020549050818114613382576000600660008673ffffffffffffffffffffffffffffffffffffffff1673ffffffffffffffffffffffffffffffffffffffff168152602001908152602001600020600084815260200190815260200160002054905080600660008773ffffffffffffffffffffffffffffffffffffffff1673ffffffffffffffffffffffffffffffffffffffff168152602001908152602001600020600084815260200190815260200160002081905550816007600083815260200190815260200160002081905550505b6007600084815260200190815260200160002060009055600660008573ffffffffffffffffffffffffffffffffffffffff1673ffffffffffffffffffffffffffffffffffffffff16815260200190815260200160002060008381526020019081526020016000206000905550505050565b6000600160088054905061340791906145c8565b90506000600960008481526020019081526020016000205490506000600883815481106134375761343661456a565b5b9060005260206000200154905080600883815481106134595761345861456a565b5b9060005260206000200181905550816009600083815260200190815260200160002081905550600960008581526020019081526020016000206000905560088054806134a8576134a761544a565b5b6001900381819060005260206000200160009055905550505050565b60006134cf836111bf565b905081600660008573ffffffffffffffffffffffffffffffffffffffff1673ffffffffffffffffffffffffffffffffffffffff168152602001908152602001600020600083815260200190815260200160002081905550806007600084815260200190815260200160002081905550505050565b600073ffffffffffffffffffffffffffffffffffffffff168273ffffffffffffffffffffffffffffffffffffffff16036135b2576040517f08c379a00000000000000000000000000000000000000000000000000000000081526004016135a9906154c5565b60405180910390fd5b6135bb8161245f565b156135fb576040517f08c379a00000000000000000000000000000000000000000000000000000000081526004016135f290615531565b60405180910390fd5b61360760008383612db9565b6001600360008473ffffffffffffffffffffffffffffffffffffffff1673ffffffffffffffffffffffffffffffffffffffff16815260200190815260200160002060008282546136579190615183565b92505081905550816002600083815260200190815260200160002060006101000a81548173ffffffffffffffffffffffffffffffffffffffff021916908373ffffffffffffffffffffffffffffffffffffffff160217905550808273ffffffffffffffffffffffffffffffffffffffff16600073ffffffffffffffffffffffffffffffffffffffff167fddf252ad1be2c89b69c2b068fc378daa952ba7f163c4a11628f55a4df523b3ef60405160405180910390a45050565b6000808273ffffffffffffffffffffffffffffffffffffffff163b119050919050565b6040518060e0016040528060008152602001600073ffffffffffffffffffffffffffffffffffffffff16815260200160008152602001606081526020016060815260200160608152602001600081525090565b6000604051905090565b600080fd5b600080fd5b60007fffffffff0000000000000000000000000000000000000000000000000000000082169050919050565b6137cf8161379a565b81146137da57600080fd5b50565b6000813590506137ec816137c6565b92915050565b60006020828403121561380857613807613790565b5b6000613816848285016137dd565b91505092915050565b60008115159050919050565b6138348161381f565b82525050565b600060208201905061384f600083018461382b565b92915050565b6000819050919050565b61386881613855565b82525050565b6000602082019050613883600083018461385f565b92915050565b600081519050919050565b600082825260208201905092915050565b60005b838110156138c35780820151818401526020810190506138a8565b60008484015250505050565b6000601f19601f8301169050919050565b60006138eb82613889565b6138f58185613894565b93506139058185602086016138a5565b61390e816138cf565b840191505092915050565b6000602082019050818103600083015261393381846138e0565b905092915050565b61394481613855565b811461394f57600080fd5b50565b6000813590506139618161393b565b92915050565b60006020828403121561397d5761397c613790565b5b600061398b84828501613952565b91505092915050565b600073ffffffffffffffffffffffffffffffffffffffff82169050919050565b60006139bf82613994565b9050919050565b6139cf816139b4565b82525050565b60006020820190506139ea60008301846139c6565b92915050565b6139f9816139b4565b8114613a0457600080fd5b50565b600081359050613a16816139f0565b92915050565b60008060408385031215613a3357613a32613790565b5b6000613a4185828601613a07565b9250506020613a5285828601613952565b9150509250929050565b600080600060608486031215613a7557613a74613790565b5b6000613a8386828701613a07565b9350506020613a9486828701613a07565b9250506040613aa586828701613952565b9150509250925092565b600081519050919050565b600082825260208201905092915050565b6000819050602082019050919050565b613ae481613855565b82525050565b613af3816139b4565b82525050565b600082825260208201905092915050565b6000613b1582613889565b613b1f8185613af9565b9350613b2f8185602086016138a5565b613b38816138cf565b840191505092915050565b600060e083016000830151613b5b6000860182613adb565b506020830151613b6e6020860182613aea565b506040830151613b816040860182613adb565b5060608301518482036060860152613b998282613b0a565b91505060808301518482036080860152613bb38282613b0a565b91505060a083015184820360a0860152613bcd8282613b0a565b91505060c0830151613be260c0860182613adb565b508091505092915050565b6000613bf98383613b43565b905092915050565b6000602082019050919050565b6000613c1982613aaf565b613c238185613aba565b935083602082028501613c3585613acb565b8060005b85811015613c715784840389528151613c528582613bed565b9450613c5d83613c01565b925060208a01995050600181019050613c39565b50829750879550505050505092915050565b60006020820190508181036000830152613c9d8184613c0e565b905092915050565b600060e083016000830151613cbd6000860182613adb565b506020830151613cd06020860182613aea565b506040830151613ce36040860182613adb565b5060608301518482036060860152613cfb8282613b0a565b91505060808301518482036080860152613d158282613b0a565b91505060a083015184820360a0860152613d2f8282613b0a565b91505060c0830151613d4460c0860182613adb565b508091505092915050565b60006020820190508181036000830152613d698184613ca5565b905092915050565b600060208284031215613d8757613d86613790565b5b6000613d9584828501613a07565b91505092915050565b600080fd5b600080fd5b7f4e487b7100000000000000000000000000000000000000000000000000000000600052604160045260246000fd5b613de0826138cf565b810181811067ffffffffffffffff82111715613dff57613dfe613da8565b5b80604052505050565b6000613e12613786565b9050613e1e8282613dd7565b919050565b600067ffffffffffffffff821115613e3e57613e3d613da8565b5b613e47826138cf565b9050602081019050919050565b82818337600083830152505050565b6000613e76613e7184613e23565b613e08565b905082815260208101848484011115613e9257613e91613da3565b5b613e9d848285613e54565b509392505050565b600082601f830112613eba57613eb9613d9e565b5b8135613eca848260208601613e63565b91505092915050565b60008060008060808587031215613eed57613eec613790565b5b600085013567ffffffffffffffff811115613f0b57613f0a613795565b5b613f1787828801613ea5565b945050602085013567ffffffffffffffff811115613f3857613f37613795565b5b613f4487828801613ea5565b935050604085013567ffffffffffffffff811115613f6557613f64613795565b5b613f7187828801613ea5565b9250506060613f8287828801613952565b91505092959194509250565b613f978161381f565b8114613fa257600080fd5b50565b600081359050613fb481613f8e565b92915050565b60008060408385031215613fd157613fd0613790565b5b6000613fdf85828601613a07565b9250506020613ff085828601613fa5565b9150509250929050565b6000806040838503121561401157614010613790565b5b600061401f85828601613952565b925050602061403085828601613952565b9150509250929050565b600067ffffffffffffffff82111561405557614054613da8565b5b61405e826138cf565b9050602081019050919050565b600061407e6140798461403a565b613e08565b90508281526020810184848401111561409a57614099613da3565b5b6140a5848285613e54565b509392505050565b600082601f8301126140c2576140c1613d9e565b5b81356140d284826020860161406b565b91505092915050565b600080600080608085870312156140f5576140f4613790565b5b600061410387828801613a07565b945050602061411487828801613a07565b935050604061412587828801613952565b925050606085013567ffffffffffffffff81111561414657614145613795565b5b614152878288016140ad565b91505092959194509250565b6000806040838503121561417557614174613790565b5b600061418385828601613a07565b925050602061419485828601613a07565b9150509250929050565b7f4e487b7100000000000000000000000000000000000000000000000000000000600052602260045260246000fd5b600060028204905060018216806141e557607f821691505b6020821081036141f8576141f761419e565b5b50919050565b7f4552433732313a20617070726f76656420717565727920666f72206e6f6e657860008201527f697374656e7420746f6b656e0000000000000000000000000000000000000000602082015250565b600061425a602c83613894565b9150614265826141fe565b604082019050919050565b600060208201905081810360008301526142898161424d565b9050919050565b7f4552433732313a20617070726f76616c20746f2063757272656e74206f776e6560008201527f7200000000000000000000000000000000000000000000000000000000000000602082015250565b60006142ec602183613894565b91506142f782614290565b604082019050919050565b6000602082019050818103600083015261431b816142df565b9050919050565b7f4552433732313a20617070726f76652063616c6c6572206973206e6f74206f7760008201527f6e6572206e6f7220617070726f76656420666f7220616c6c0000000000000000602082015250565b600061437e603883613894565b915061438982614322565b604082019050919050565b600060208201905081810360008301526143ad81614371565b9050919050565b7f4552433732313a207472616e736665722063616c6c6572206973206e6f74206f60008201527f776e6572206e6f7220617070726f766564000000000000000000000000000000602082015250565b6000614410603183613894565b915061441b826143b4565b604082019050919050565b6000602082019050818103600083015261443f81614403565b9050919050565b7f455243373231456e756d657261626c653a206f776e657220696e646578206f7560008201527f74206f6620626f756e6473000000000000000000000000000000000000000000602082015250565b60006144a2602b83613894565b91506144ad82614446565b604082019050919050565b600060208201905081810360008301526144d181614495565b9050919050565b7f455243373231456e756d657261626c653a20676c6f62616c20696e646578206f60008201527f7574206f6620626f756e64730000000000000000000000000000000000000000602082015250565b6000614534602c83613894565b915061453f826144d8565b604082019050919050565b6000602082019050818103600083015261456381614527565b9050919050565b7f4e487b7100000000000000000000000000000000000000000000000000000000600052603260045260246000fd5b7f4e487b7100000000000000000000000000000000000000000000000000000000600052601160045260246000fd5b60006145d382613855565b91506145de83613855565b92508282039050818111156145f6576145f5614599565b5b92915050565b7f4552433732313a206f776e657220717565727920666f72206e6f6e657869737460008201527f656e7420746f6b656e0000000000000000000000000000000000000000000000602082015250565b6000614658602983613894565b9150614663826145fc565b604082019050919050565b600060208201905081810360008301526146878161464b565b9050919050565b7f4552433732313a2062616c616e636520717565727920666f7220746865207a6560008201527f726f206164647265737300000000000000000000000000000000000000000000602082015250565b60006146ea602a83613894565b91506146f58261468e565b604082019050919050565b60006020820190508181036000830152614719816146dd565b9050919050565b7f457468657220746f6f206c6f7720666f72206d696e74696e6721000000000000600082015250565b6000614756601a83613894565b915061476182614720565b602082019050919050565b6000602082019050818103600083015261478581614749565b9050919050565b600081905092915050565b60006147a282613889565b6147ac818561478c565b93506147bc8185602086016138a5565b80840191505092915050565b60006147d48284614797565b915081905092915050565b7f54686973204e465420697320616c7265616479206d696e746564210000000000600082015250565b6000614815601b83613894565b9150614820826147df565b602082019050919050565b6000602082019050818103600083015261484481614808565b9050919050565b7f53616c6573206e6f7420616c6c6f776564210000000000000000000000000000600082015250565b6000614881601283613894565b915061488c8261484b565b602082019050919050565b600060208201905081810360008301526148b081614874565b9050919050565b60006148c282613855565b91506148cd83613855565b92508282026148db81613855565b915082820484148315176148f2576148f1614599565b5b5092915050565b7f4e487b7100000000000000000000000000000000000000000000000000000000600052601260045260246000fd5b600061493382613855565b915061493e83613855565b92508261494e5761494d6148f9565b5b828204905092915050565b600061496482613855565b91507fffffffffffffffffffffffffffffffffffffffffffffffffffffffffffffffff820361499657614995614599565b5b600182019050919050565b60008190508160005260206000209050919050565b60006020601f8301049050919050565b60008160020a8302905092915050565b600060088302614a067fffffffffffffffffffffffffffffffffffffffffffffffffffffffffffffffff826149c6565b614a1086836149c6565b95508019841693508086168417925050509392505050565b6000819050919050565b6000614a4d614a48614a4384613855565b614a28565b613855565b9050919050565b6000819050919050565b614a6783614a32565b614a7b614a7382614a54565b8484546149d6565b825550505050565b600090565b614a90614a83565b614a9b818484614a5e565b505050565b5b81811015614abf57614ab4600082614a88565b600181019050614aa1565b5050565b601f821115614b0457614ad5816149a1565b614ade846149b6565b81016020851015614aed578190505b614b01614af9856149b6565b830182614aa0565b50505b505050565b60008160020a8304905092915050565b6000614b2a60001984600802614b09565b1980831691505092915050565b6000614b438383614b19565b9150826002028217905092915050565b614b5c82613889565b67ffffffffffffffff811115614b7557614b74613da8565b5b614b7f82546141cd565b614b8a828285614ac3565b600060209050601f831160018114614bbd5760008415614bab578287015190505b614bb58582614b37565b865550614c1d565b601f198416614bcb866149a1565b60005b82811015614bf357848901518255600182019150602085019450602081019050614bce565b86831015614c105784890151614c0c601f891682614b19565b8355505b6001600288020188555050505b505050505050565b6000608082019050614c3a600083018761385f565b614c47602083018661385f565b8181036040830152614c5981856138e0565b9050614c68606083018461385f565b95945050505050565b7f457468657220746f6f206c6f7720666f72207075726368617365210000000000600082015250565b6000614ca7601b83613894565b9150614cb282614c71565b602082019050919050565b60006020820190508181036000830152614cd681614c9a565b9050919050565b7f4f7065726174696f6e204e6f7420416c6c6f7765642100000000000000000000600082015250565b6000614d13601683613894565b9150614d1e82614cdd565b602082019050919050565b60006020820190508181036000830152614d4281614d06565b9050919050565b60008154614d56816141cd565b614d608186613894565b94506001821660008114614d7b5760018114614d9157614dc4565b60ff198316865281151560200286019350614dc4565b614d9a856149a1565b60005b83811015614dbc57815481890152600182019150602081019050614d9d565b808801955050505b50505092915050565b6000608082019050614de2600083018761385f565b614def602083018661385f565b8181036040830152614e018185614d49565b9050614e10606083018461385f565b95945050505050565b7f457468657220746f6f206c6f7721000000000000000000000000000000000000600082015250565b6000614e4f600e83613894565b9150614e5a82614e19565b602082019050919050565b60006020820190508181036000830152614e7e81614e42565b9050919050565b7f4552433732314d657461646174613a2055524920717565727920666f72206e6f60008201527f6e6578697374656e7420746f6b656e0000000000000000000000000000000000602082015250565b6000614ee1602f83613894565b9150614eec82614e85565b604082019050919050565b60006020820190508181036000830152614f1081614ed4565b9050919050565b6000614f238285614797565b9150614f2f8284614797565b91508190509392505050565b7f4f776e61626c653a206e6577206f776e657220697320746865207a65726f206160008201527f6464726573730000000000000000000000000000000000000000000000000000602082015250565b6000614f97602683613894565b9150614fa282614f3b565b604082019050919050565b60006020820190508181036000830152614fc681614f8a565b9050919050565b7f4552433732313a206f70657261746f7220717565727920666f72206e6f6e657860008201527f697374656e7420746f6b656e0000000000000000000000000000000000000000602082015250565b6000615029602c83613894565b915061503482614fcd565b604082019050919050565b600060208201905081810360008301526150588161501c565b9050919050565b7f4552433732313a207472616e73666572206f6620746f6b656e2074686174206960008201527f73206e6f74206f776e0000000000000000000000000000000000000000000000602082015250565b60006150bb602983613894565b91506150c68261505f565b604082019050919050565b600060208201905081810360008301526150ea816150ae565b9050919050565b7f4552433732313a207472616e7366657220746f20746865207a65726f2061646460008201527f7265737300000000000000000000000000000000000000000000000000000000602082015250565b600061514d602483613894565b9150615158826150f1565b604082019050919050565b6000602082019050818103600083015261517c81615140565b9050919050565b600061518e82613855565b915061519983613855565b92508282019050808211156151b1576151b0614599565b5b92915050565b7f4f776e61626c653a2063616c6c6572206973206e6f7420746865206f776e6572600082015250565b60006151ed602083613894565b91506151f8826151b7565b602082019050919050565b6000602082019050818103600083015261521c816151e0565b9050919050565b600081905092915050565b50565b600061523e600083615223565b91506152498261522e565b600082019050919050565b600061525f82615231565b9150819050919050565b7f4552433732313a20617070726f766520746f2063616c6c657200000000000000600082015250565b600061529f601983613894565b91506152aa82615269565b602082019050919050565b600060208201905081810360008301526152ce81615292565b9050919050565b7f4552433732313a207472616e7366657220746f206e6f6e20455243373231526560008201527f63656976657220696d706c656d656e7465720000000000000000000000000000602082015250565b6000615331603283613894565b915061533c826152d5565b604082019050919050565b6000602082019050818103600083015261536081615324565b9050919050565b600081519050919050565b600082825260208201905092915050565b600061538e82615367565b6153988185615372565b93506153a88185602086016138a5565b6153b1816138cf565b840191505092915050565b60006080820190506153d160008301876139c6565b6153de60208301866139c6565b6153eb604083018561385f565b81810360608301526153fd8184615383565b905095945050505050565b600081519050615417816137c6565b92915050565b60006020828403121561543357615432613790565b5b600061544184828501615408565b91505092915050565b7f4e487b7100000000000000000000000000000000000000000000000000000000600052603160045260246000fd5b7f4552433732313a206d696e7420746f20746865207a65726f2061646472657373600082015250565b60006154af602083613894565b91506154ba82615479565b602082019050919050565b600060208201905081810360008301526154de816154a2565b9050919050565b7f4552433732313a20746f6b656e20616c7265616479206d696e74656400000000600082015250565b600061551b601c83613894565b9150615526826154e5565b602082019050919050565b6000602082019050818103600083015261554a8161550e565b905091905056fea26469706673582212202d952a99522d3e90e644447739a173ac9cac6e62583354d9a6180b89b96dd7ba64736f6c63430008110033",
  "immutableReferences": {},
  "source": "// SPDX-License-Identifier: MIT\r\npragma solidity >=0.7.0 <0.9.0;\r\n\r\nimport \"./ERC721.sol\";\r\nimport \"./ERC721Enumerable.sol\";\r\nimport \"@openzeppelin/contracts/access/Ownable.sol\";\r\n\r\ncontract SabifiNFT is ERC721Enumerable, Ownable {\r\n    using Strings for uint256;\r\n    mapping(string => uint8) existingURIs;\r\n    mapping(uint256 => address) public holderOf;\r\n\r\n    address public artist;\r\n    uint256 public royalityFee;\r\n    uint256 public supply = 0;\r\n    uint256 public totalTx = 0;\r\n    uint256 public cost = 0.01 ether;\r\n\r\n    event Sale(\r\n        uint256 id,\r\n        address indexed owner,\r\n        uint256 cost,\r\n        string metadataURI,\r\n        uint256 timestamp\r\n    );\r\n\r\n    struct TransactionStruct {\r\n        uint256 id;\r\n        address owner;\r\n        uint256 cost;\r\n        string title;\r\n        string description;\r\n        string metadataURI;\r\n        uint256 timestamp;\r\n    }\r\n\r\n    TransactionStruct[] transactions;\r\n    TransactionStruct[] minted;\r\n\r\n    constructor(\r\n        string memory _name,\r\n        string memory _symbol,\r\n        uint256 _royalityFee,\r\n        address _artist\r\n    ) ERC721(_name, _symbol) {\r\n        royalityFee = _royalityFee;\r\n        artist = _artist;\r\n    }\r\n\r\n    function payToMint(\r\n        string memory title,\r\n        string memory description,\r\n        string memory metadataURI,\r\n        uint256 salesPrice\r\n    ) external payable {\r\n        require(msg.value >= cost, \"Ether too low for minting!\");\r\n        require(existingURIs[metadataURI] == 0, \"This NFT is already minted!\");\r\n        require(msg.sender != owner(), \"Sales not allowed!\");\r\n        \r\n\r\n        uint256 royality = (msg.value * royalityFee) / 100;\r\n        payTo(artist, royality);\r\n        payTo(owner(), (msg.value - royality));\r\n\r\n        supply++;\r\n\r\n        minted.push(\r\n            TransactionStruct(\r\n                supply,\r\n                msg.sender,\r\n                salesPrice,\r\n                title,\r\n                description,\r\n                metadataURI,\r\n                block.timestamp\r\n            )\r\n        );\r\n\r\n        emit Sale(\r\n            supply,\r\n            msg.sender,\r\n            msg.value,\r\n            metadataURI,\r\n            block.timestamp\r\n        );\r\n\r\n        _safeMint(msg.sender, supply);\r\n        existingURIs[metadataURI] = 1;\r\n        holderOf[supply] = msg.sender;\r\n    }\r\n\r\n    function payToBuy(uint256 id) external payable {\r\n        require(msg.value >= minted[id - 1].cost, \"Ether too low for purchase!\");\r\n        require(msg.sender != minted[id - 1].owner, \"Operation Not Allowed!\");\r\n\r\n        uint256 royality = (msg.value * royalityFee) / 100;\r\n        payTo(artist, royality);\r\n        payTo(minted[id - 1].owner, (msg.value - royality));\r\n\r\n        totalTx++;\r\n\r\n        transactions.push(\r\n            TransactionStruct(\r\n                totalTx,\r\n                msg.sender,\r\n                msg.value,\r\n                minted[id - 1].title,\r\n                minted[id - 1].description,\r\n                minted[id - 1].metadataURI,\r\n                block.timestamp\r\n            )\r\n        );\r\n\r\n        emit Sale(\r\n            totalTx,\r\n            msg.sender,\r\n            msg.value,\r\n            minted[id - 1].metadataURI,\r\n            block.timestamp\r\n        );\r\n\r\n        minted[id - 1].owner = msg.sender;\r\n    }\r\n\r\n    function changePrice(uint256 id, uint256 newPrice) external returns (bool) {\r\n        require(newPrice > 0 ether, \"Ether too low!\");\r\n        require(msg.sender == minted[id - 1].owner, \"Operation Not Allowed!\");\r\n\r\n        minted[id - 1].cost = newPrice;\r\n        return true;\r\n    }\r\n\r\n    function payTo(address to, uint256 amount) internal {\r\n        (bool success, ) = payable(to).call{value: amount}(\"\");\r\n        require(success);\r\n    }\r\n\r\n    function getAllNFTs() external view returns (TransactionStruct[] memory) {\r\n        return minted;\r\n    }\r\n\r\n    function getNFT(uint256 id) external view returns (TransactionStruct memory) {\r\n        return minted[id - 1];\r\n    }\r\n\r\n    function getAllTransactions() external view returns (TransactionStruct[] memory) {\r\n        return transactions;\r\n    }\r\n}",
  "sourcePath": "C:\\Users\\Sabasoft\\Desktop\\new_market\\Sabifi_Marketplace\\src\\contracts\\SabifiNFT.sol",
  "compiler": {
    "name": "solc",
    "version": "0.8.17+commit.8df45f5f.Emscripten.clang"
  },
  "schemaVersion": "3.4.11",
  "updatedAt": "2022-12-16T11:13:35.107Z",
  "networkType": "ethereum",
  "devdoc": {
    "kind": "dev",
    "methods": {
      "approve(address,uint256)": {
        "details": "See {IERC721-approve}."
      },
      "balanceOf(address)": {
        "details": "See {IERC721-balanceOf}."
      },
      "getApproved(uint256)": {
        "details": "See {IERC721-getApproved}."
      },
      "isApprovedForAll(address,address)": {
        "details": "See {IERC721-isApprovedForAll}."
      },
      "name()": {
        "details": "See {IERC721Metadata-name}."
      },
      "owner()": {
        "details": "Returns the address of the current owner."
      },
      "ownerOf(uint256)": {
        "details": "See {IERC721-ownerOf}."
      },
      "renounceOwnership()": {
        "details": "Leaves the contract without owner. It will not be possible to call `onlyOwner` functions anymore. Can only be called by the current owner. NOTE: Renouncing ownership will leave the contract without an owner, thereby removing any functionality that is only available to the owner."
      },
      "safeTransferFrom(address,address,uint256)": {
        "details": "See {IERC721-safeTransferFrom}."
      },
      "safeTransferFrom(address,address,uint256,bytes)": {
        "details": "See {IERC721-safeTransferFrom}."
      },
      "setApprovalForAll(address,bool)": {
        "details": "See {IERC721-setApprovalForAll}."
      },
      "supportsInterface(bytes4)": {
        "details": "See {IERC165-supportsInterface}."
      },
      "symbol()": {
        "details": "See {IERC721Metadata-symbol}."
      },
      "tokenByIndex(uint256)": {
        "details": "See {IERC721Enumerable-tokenByIndex}."
      },
      "tokenOfOwnerByIndex(address,uint256)": {
        "details": "See {IERC721Enumerable-tokenOfOwnerByIndex}."
      },
      "tokenURI(uint256)": {
        "details": "See {IERC721Metadata-tokenURI}."
      },
      "totalSupply()": {
        "details": "See {IERC721Enumerable-totalSupply}."
      },
      "transferFrom(address,address,uint256)": {
        "details": "See {IERC721-transferFrom}."
      },
      "transferOwnership(address)": {
        "details": "Transfers ownership of the contract to a new account (`newOwner`). Can only be called by the current owner."
      }
    },
    "version": 1
  },
  "userdoc": {
    "kind": "user",
    "methods": {},
    "version": 1
  }
}